{
  "_format": "hh-sol-artifact-1",
  "contractName": "Eusko",
  "sourceName": "contracts/Eusko.sol",
  "abi": [
    {
      "inputs": [
        {
          "internalType": "address",
          "name": "eurcAddress",
          "type": "address"
        }
      ],
      "stateMutability": "nonpayable",
      "type": "constructor"
    },
    {
      "inputs": [
        {
          "internalType": "address",
          "name": "spender",
          "type": "address"
        },
        {
          "internalType": "uint256",
          "name": "allowance",
          "type": "uint256"
        },
        {
          "internalType": "uint256",
          "name": "needed",
          "type": "uint256"
        }
      ],
      "name": "ERC20InsufficientAllowance",
      "type": "error"
    },
    {
      "inputs": [
        {
          "internalType": "address",
          "name": "sender",
          "type": "address"
        },
        {
          "internalType": "uint256",
          "name": "balance",
          "type": "uint256"
        },
        {
          "internalType": "uint256",
          "name": "needed",
          "type": "uint256"
        }
      ],
      "name": "ERC20InsufficientBalance",
      "type": "error"
    },
    {
      "inputs": [
        {
          "internalType": "address",
          "name": "approver",
          "type": "address"
        }
      ],
      "name": "ERC20InvalidApprover",
      "type": "error"
    },
    {
      "inputs": [
        {
          "internalType": "address",
          "name": "receiver",
          "type": "address"
        }
      ],
      "name": "ERC20InvalidReceiver",
      "type": "error"
    },
    {
      "inputs": [
        {
          "internalType": "address",
          "name": "sender",
          "type": "address"
        }
      ],
      "name": "ERC20InvalidSender",
      "type": "error"
    },
    {
      "inputs": [
        {
          "internalType": "address",
          "name": "spender",
          "type": "address"
        }
      ],
      "name": "ERC20InvalidSpender",
      "type": "error"
    },
    {
      "inputs": [
        {
          "internalType": "address",
          "name": "owner",
          "type": "address"
        }
      ],
      "name": "OwnableInvalidOwner",
      "type": "error"
    },
    {
      "inputs": [
        {
          "internalType": "address",
          "name": "account",
          "type": "address"
        }
      ],
      "name": "OwnableUnauthorizedAccount",
      "type": "error"
    },
    {
      "inputs": [],
      "name": "ReentrancyGuardReentrantCall",
      "type": "error"
    },
    {
      "anonymous": false,
      "inputs": [
        {
          "indexed": true,
          "internalType": "address",
          "name": "owner",
          "type": "address"
        },
        {
          "indexed": true,
          "internalType": "address",
          "name": "spender",
          "type": "address"
        },
        {
          "indexed": false,
          "internalType": "uint256",
          "name": "value",
          "type": "uint256"
        }
      ],
      "name": "Approval",
      "type": "event"
    },
    {
      "anonymous": false,
      "inputs": [
        {
          "indexed": true,
          "internalType": "address",
          "name": "account",
          "type": "address"
        }
      ],
      "name": "AuthorizedAccountAdded",
      "type": "event"
    },
    {
      "anonymous": false,
      "inputs": [
        {
          "indexed": true,
          "internalType": "address",
          "name": "account",
          "type": "address"
        }
      ],
      "name": "AuthorizedAccountRemoved",
      "type": "event"
    },
    {
      "anonymous": false,
      "inputs": [
        {
          "indexed": true,
          "internalType": "address",
          "name": "from",
          "type": "address"
        },
        {
          "indexed": false,
          "internalType": "uint256",
          "name": "amount",
          "type": "uint256"
        }
      ],
      "name": "EuskoBurned",
      "type": "event"
    },
    {
      "anonymous": false,
      "inputs": [
        {
          "indexed": true,
          "internalType": "address",
          "name": "to",
          "type": "address"
        },
        {
          "indexed": false,
          "internalType": "uint256",
          "name": "amount",
          "type": "uint256"
        }
      ],
      "name": "EuskoMinted",
      "type": "event"
    },
    {
      "anonymous": false,
      "inputs": [
        {
          "indexed": true,
          "internalType": "address",
          "name": "minter",
          "type": "address"
        },
        {
          "indexed": true,
          "internalType": "address",
          "name": "recipient",
          "type": "address"
        },
        {
          "indexed": false,
          "internalType": "uint256",
          "name": "amount",
          "type": "uint256"
        },
        {
          "indexed": false,
          "internalType": "uint256",
          "name": "eurcAmount",
          "type": "uint256"
        }
      ],
      "name": "EuskoMintedWithEURC",
      "type": "event"
    },
    {
      "anonymous": false,
      "inputs": [
        {
          "indexed": true,
          "internalType": "address",
          "name": "redeemer",
          "type": "address"
        },
        {
          "indexed": false,
          "internalType": "uint256",
          "name": "amount",
          "type": "uint256"
        },
        {
          "indexed": false,
          "internalType": "uint256",
          "name": "eurcAmount",
          "type": "uint256"
        }
      ],
      "name": "EuskoRedeemed",
      "type": "event"
    },
    {
      "anonymous": false,
      "inputs": [
        {
          "indexed": true,
          "internalType": "address",
          "name": "spender",
          "type": "address"
        },
        {
          "indexed": true,
          "internalType": "address",
          "name": "merchant",
          "type": "address"
        },
        {
          "indexed": false,
          "internalType": "uint256",
          "name": "amount",
          "type": "uint256"
        }
      ],
      "name": "EuskoSpent",
      "type": "event"
    },
    {
      "anonymous": false,
      "inputs": [
        {
          "indexed": true,
          "internalType": "address",
          "name": "volunteer",
          "type": "address"
        },
        {
          "indexed": false,
          "internalType": "string",
          "name": "description",
          "type": "string"
        },
        {
          "indexed": false,
          "internalType": "uint256",
          "name": "reward",
          "type": "uint256"
        },
        {
          "indexed": false,
          "internalType": "uint256",
          "name": "timestamp",
          "type": "uint256"
        }
      ],
      "name": "ExpiredActRemoved",
      "type": "event"
    },
    {
      "anonymous": false,
      "inputs": [
        {
          "indexed": true,
          "internalType": "address",
          "name": "merchant",
          "type": "address"
        }
      ],
      "name": "MerchantAdded",
      "type": "event"
    },
    {
      "anonymous": false,
      "inputs": [
        {
          "indexed": true,
          "internalType": "address",
          "name": "merchant",
          "type": "address"
        },
        {
          "indexed": false,
          "internalType": "uint256",
          "name": "amount",
          "type": "uint256"
        }
      ],
      "name": "MerchantClaimedFunds",
      "type": "event"
    },
    {
      "anonymous": false,
      "inputs": [
        {
          "indexed": true,
          "internalType": "address",
          "name": "merchant",
          "type": "address"
        }
      ],
      "name": "MerchantRemoved",
      "type": "event"
    },
    {
      "anonymous": false,
      "inputs": [
        {
          "indexed": true,
          "internalType": "address",
          "name": "previousOwner",
          "type": "address"
        },
        {
          "indexed": true,
          "internalType": "address",
          "name": "newOwner",
          "type": "address"
        }
      ],
      "name": "OwnershipTransferred",
      "type": "event"
    },
    {
      "anonymous": false,
      "inputs": [
        {
          "indexed": true,
          "internalType": "address",
          "name": "oldReserve",
          "type": "address"
        },
        {
          "indexed": true,
          "internalType": "address",
          "name": "newReserve",
          "type": "address"
        }
      ],
      "name": "ReserveUpdated",
      "type": "event"
    },
    {
      "anonymous": false,
      "inputs": [
        {
          "indexed": true,
          "internalType": "address",
          "name": "from",
          "type": "address"
        },
        {
          "indexed": true,
          "internalType": "address",
          "name": "to",
          "type": "address"
        },
        {
          "indexed": false,
          "internalType": "uint256",
          "name": "value",
          "type": "uint256"
        }
      ],
      "name": "Transfer",
      "type": "event"
    },
    {
      "anonymous": false,
      "inputs": [
        {
          "indexed": true,
          "internalType": "address",
          "name": "volunteer",
          "type": "address"
        },
        {
          "indexed": true,
          "internalType": "address",
          "name": "organism",
          "type": "address"
        },
        {
          "indexed": false,
          "internalType": "string",
          "name": "description",
          "type": "string"
        },
        {
          "indexed": false,
          "internalType": "uint256",
          "name": "reward",
          "type": "uint256"
        },
        {
          "indexed": false,
          "internalType": "uint256",
          "name": "timestamp",
          "type": "uint256"
        }
      ],
      "name": "VolunteerActRegistered",
      "type": "event"
    },
    {
      "inputs": [
        {
          "internalType": "address",
          "name": "_account",
          "type": "address"
        }
      ],
      "name": "addAuthorizedAccount",
      "outputs": [],
      "stateMutability": "nonpayable",
      "type": "function"
    },
    {
      "inputs": [
        {
          "internalType": "address",
          "name": "_merchant",
          "type": "address"
        }
      ],
      "name": "addMerchant",
      "outputs": [],
      "stateMutability": "nonpayable",
      "type": "function"
    },
    {
      "inputs": [
        {
          "internalType": "address",
          "name": "owner",
          "type": "address"
        },
        {
          "internalType": "address",
          "name": "spender",
          "type": "address"
        }
      ],
      "name": "allowance",
      "outputs": [
        {
          "internalType": "uint256",
          "name": "",
          "type": "uint256"
        }
      ],
      "stateMutability": "view",
      "type": "function"
    },
    {
      "inputs": [
        {
          "internalType": "address",
          "name": "spender",
          "type": "address"
        },
        {
          "internalType": "uint256",
          "name": "value",
          "type": "uint256"
        }
      ],
      "name": "approve",
      "outputs": [
        {
          "internalType": "bool",
          "name": "",
          "type": "bool"
        }
      ],
      "stateMutability": "nonpayable",
      "type": "function"
    },
    {
      "inputs": [
        {
          "internalType": "address",
          "name": "account",
          "type": "address"
        }
      ],
      "name": "balanceOf",
      "outputs": [
        {
          "internalType": "uint256",
          "name": "",
          "type": "uint256"
        }
      ],
      "stateMutability": "view",
      "type": "function"
    },
    {
      "inputs": [
        {
          "internalType": "address",
          "name": "_from",
          "type": "address"
        },
        {
          "internalType": "uint256",
          "name": "_amount",
          "type": "uint256"
        }
      ],
      "name": "burn",
      "outputs": [],
      "stateMutability": "nonpayable",
      "type": "function"
    },
    {
      "inputs": [],
      "name": "claimFunds",
      "outputs": [],
      "stateMutability": "nonpayable",
      "type": "function"
    },
    {
      "inputs": [],
      "name": "decimals",
      "outputs": [
        {
          "internalType": "uint8",
          "name": "",
          "type": "uint8"
        }
      ],
      "stateMutability": "pure",
      "type": "function"
    },
    {
      "inputs": [],
      "name": "eurcToken",
      "outputs": [
        {
          "internalType": "contract IERC20",
          "name": "",
          "type": "address"
        }
      ],
      "stateMutability": "view",
      "type": "function"
    },
    {
      "inputs": [
        {
          "internalType": "address",
          "name": "_volunteer",
          "type": "address"
        }
      ],
      "name": "getActsByVolunteer",
      "outputs": [
        {
          "components": [
            {
              "internalType": "address",
              "name": "organism",
              "type": "address"
            },
            {
              "internalType": "string",
              "name": "description",
              "type": "string"
            },
            {
              "internalType": "uint256",
              "name": "reward",
              "type": "uint256"
            },
            {
              "internalType": "uint256",
              "name": "timestamp",
              "type": "uint256"
            }
          ],
          "internalType": "struct Eusko.Act[]",
          "name": "",
          "type": "tuple[]"
        }
      ],
      "stateMutability": "view",
      "type": "function"
    },
    {
      "inputs": [
        {
          "internalType": "address",
          "name": "_merchant",
          "type": "address"
        }
      ],
      "name": "getMerchantBalance",
      "outputs": [
        {
          "internalType": "uint256",
          "name": "",
          "type": "uint256"
        }
      ],
      "stateMutability": "view",
      "type": "function"
    },
    {
      "inputs": [
        {
          "internalType": "address",
          "name": "_merchant",
          "type": "address"
        }
      ],
      "name": "isApprovedMerchant",
      "outputs": [
        {
          "internalType": "bool",
          "name": "",
          "type": "bool"
        }
      ],
      "stateMutability": "view",
      "type": "function"
    },
    {
      "inputs": [
        {
          "internalType": "address",
          "name": "_account",
          "type": "address"
        }
      ],
      "name": "isAuthorizedAccount",
      "outputs": [
        {
          "internalType": "bool",
          "name": "",
          "type": "bool"
        }
      ],
      "stateMutability": "view",
      "type": "function"
    },
    {
      "inputs": [
        {
          "internalType": "address",
          "name": "_recipient",
          "type": "address"
        },
        {
          "internalType": "uint256",
          "name": "_eurcAmount",
          "type": "uint256"
        }
      ],
      "name": "mintWithEURC",
      "outputs": [],
      "stateMutability": "nonpayable",
      "type": "function"
    },
    {
      "inputs": [],
      "name": "name",
      "outputs": [
        {
          "internalType": "string",
          "name": "",
          "type": "string"
        }
      ],
      "stateMutability": "view",
      "type": "function"
    },
    {
      "inputs": [],
      "name": "owner",
      "outputs": [
        {
          "internalType": "address",
          "name": "",
          "type": "address"
        }
      ],
      "stateMutability": "view",
      "type": "function"
    },
    {
      "inputs": [
        {
          "internalType": "uint256",
          "name": "_euskoAmount",
          "type": "uint256"
        }
      ],
      "name": "redeem",
      "outputs": [],
      "stateMutability": "nonpayable",
      "type": "function"
    },
    {
      "inputs": [
        {
          "internalType": "address",
          "name": "_volunteer",
          "type": "address"
        },
        {
          "internalType": "address",
          "name": "_organism",
          "type": "address"
        },
        {
          "internalType": "string",
          "name": "_description",
          "type": "string"
        },
        {
          "internalType": "uint256",
          "name": "_reward",
          "type": "uint256"
        }
      ],
      "name": "registerAct",
      "outputs": [],
      "stateMutability": "nonpayable",
      "type": "function"
    },
    {
      "inputs": [
        {
          "internalType": "address",
          "name": "_account",
          "type": "address"
        }
      ],
      "name": "removeAuthorizedAccount",
      "outputs": [],
      "stateMutability": "nonpayable",
      "type": "function"
    },
    {
      "inputs": [
        {
          "internalType": "address",
          "name": "_volunteer",
          "type": "address"
        }
      ],
      "name": "removeExpiredActs",
      "outputs": [],
      "stateMutability": "nonpayable",
      "type": "function"
    },
    {
      "inputs": [
        {
          "internalType": "address",
          "name": "_merchant",
          "type": "address"
        }
      ],
      "name": "removeMerchant",
      "outputs": [],
      "stateMutability": "nonpayable",
      "type": "function"
    },
    {
      "inputs": [],
      "name": "renounceOwnership",
      "outputs": [],
      "stateMutability": "nonpayable",
      "type": "function"
    },
    {
      "inputs": [],
      "name": "reserve",
      "outputs": [
        {
          "internalType": "address",
          "name": "",
          "type": "address"
        }
      ],
      "stateMutability": "view",
      "type": "function"
    },
    {
      "inputs": [
        {
          "internalType": "address",
          "name": "_merchant",
          "type": "address"
        },
        {
          "internalType": "uint256",
          "name": "_amount",
          "type": "uint256"
        }
      ],
      "name": "spend",
      "outputs": [],
      "stateMutability": "nonpayable",
      "type": "function"
    },
    {
      "inputs": [],
      "name": "symbol",
      "outputs": [
        {
          "internalType": "string",
          "name": "",
          "type": "string"
        }
      ],
      "stateMutability": "view",
      "type": "function"
    },
    {
      "inputs": [],
      "name": "totalEurosInReserve",
      "outputs": [
        {
          "internalType": "uint256",
          "name": "",
          "type": "uint256"
        }
      ],
      "stateMutability": "view",
      "type": "function"
    },
    {
      "inputs": [],
      "name": "totalSupply",
      "outputs": [
        {
          "internalType": "uint256",
          "name": "",
          "type": "uint256"
        }
      ],
      "stateMutability": "view",
      "type": "function"
    },
    {
      "inputs": [
        {
          "internalType": "address",
          "name": "to",
          "type": "address"
        },
        {
          "internalType": "uint256",
          "name": "value",
          "type": "uint256"
        }
      ],
      "name": "transfer",
      "outputs": [
        {
          "internalType": "bool",
          "name": "",
          "type": "bool"
        }
      ],
      "stateMutability": "nonpayable",
      "type": "function"
    },
    {
      "inputs": [
        {
          "internalType": "address",
          "name": "from",
          "type": "address"
        },
        {
          "internalType": "address",
          "name": "to",
          "type": "address"
        },
        {
          "internalType": "uint256",
          "name": "value",
          "type": "uint256"
        }
      ],
      "name": "transferFrom",
      "outputs": [
        {
          "internalType": "bool",
          "name": "",
          "type": "bool"
        }
      ],
      "stateMutability": "nonpayable",
      "type": "function"
    },
    {
      "inputs": [
        {
          "internalType": "address",
          "name": "newOwner",
          "type": "address"
        }
      ],
      "name": "transferOwnership",
      "outputs": [],
      "stateMutability": "nonpayable",
      "type": "function"
    },
    {
      "inputs": [
        {
          "internalType": "address",
          "name": "_newReserve",
          "type": "address"
        }
      ],
      "name": "updateReserve",
      "outputs": [],
      "stateMutability": "nonpayable",
      "type": "function"
    },
    {
      "inputs": [
        {
          "internalType": "address",
          "name": "",
          "type": "address"
        },
        {
          "internalType": "uint256",
          "name": "",
          "type": "uint256"
        }
      ],
      "name": "volunteerActs",
      "outputs": [
        {
          "internalType": "address",
          "name": "organism",
          "type": "address"
        },
        {
          "internalType": "string",
          "name": "description",
          "type": "string"
        },
        {
          "internalType": "uint256",
          "name": "reward",
          "type": "uint256"
        },
        {
          "internalType": "uint256",
          "name": "timestamp",
          "type": "uint256"
        }
      ],
      "stateMutability": "view",
      "type": "function"
    }
  ],
  "bytecode": "0x608060405234801561001057600080fd5b50604051614dcc380380614dcc83398181016040528101906100329190610373565b336040518060400160405280600581526020017f4575736b6f0000000000000000000000000000000000000000000000000000008152506040518060400160405280600381526020017f455553000000000000000000000000000000000000000000000000000000000081525081600390816100ae91906105f0565b5080600490816100be91906105f0565b505050600073ffffffffffffffffffffffffffffffffffffffff168173ffffffffffffffffffffffffffffffffffffffff16036101335760006040517f1e4fbdf700000000000000000000000000000000000000000000000000000000815260040161012a91906106d1565b60405180910390fd5b6101428161024a60201b60201c565b506001600781905550600073ffffffffffffffffffffffffffffffffffffffff168173ffffffffffffffffffffffffffffffffffffffff16036101ba576040517f08c379a00000000000000000000000000000000000000000000000000000000081526004016101b190610749565b60405180910390fd5b80600860006101000a81548173ffffffffffffffffffffffffffffffffffffffff021916908373ffffffffffffffffffffffffffffffffffffffff160217905550600060098190555033600a60006101000a81548173ffffffffffffffffffffffffffffffffffffffff021916908373ffffffffffffffffffffffffffffffffffffffff16021790555050610769565b6000600560009054906101000a900473ffffffffffffffffffffffffffffffffffffffff16905081600560006101000a81548173ffffffffffffffffffffffffffffffffffffffff021916908373ffffffffffffffffffffffffffffffffffffffff1602179055508173ffffffffffffffffffffffffffffffffffffffff168173ffffffffffffffffffffffffffffffffffffffff167f8be0079c531659141344cd1fd0a4f28419497f9722a3daafe3b4186f6b6457e060405160405180910390a35050565b600080fd5b600073ffffffffffffffffffffffffffffffffffffffff82169050919050565b600061034082610315565b9050919050565b61035081610335565b811461035b57600080fd5b50565b60008151905061036d81610347565b92915050565b60006020828403121561038957610388610310565b5b60006103978482850161035e565b91505092915050565b600081519050919050565b7f4e487b7100000000000000000000000000000000000000000000000000000000600052604160045260246000fd5b7f4e487b7100000000000000000000000000000000000000000000000000000000600052602260045260246000fd5b6000600282049050600182168061042157607f821691505b602082108103610434576104336103da565b5b50919050565b60008190508160005260206000209050919050565b60006020601f8301049050919050565b600082821b905092915050565b60006008830261049c7fffffffffffffffffffffffffffffffffffffffffffffffffffffffffffffffff8261045f565b6104a6868361045f565b95508019841693508086168417925050509392505050565b6000819050919050565b6000819050919050565b60006104ed6104e86104e3846104be565b6104c8565b6104be565b9050919050565b6000819050919050565b610507836104d2565b61051b610513826104f4565b84845461046c565b825550505050565b600090565b610530610523565b61053b8184846104fe565b505050565b5b8181101561055f57610554600082610528565b600181019050610541565b5050565b601f8211156105a4576105758161043a565b61057e8461044f565b8101602085101561058d578190505b6105a16105998561044f565b830182610540565b50505b505050565b600082821c905092915050565b60006105c7600019846008026105a9565b1980831691505092915050565b60006105e083836105b6565b9150826002028217905092915050565b6105f9826103a0565b67ffffffffffffffff811115610612576106116103ab565b5b61061c8254610409565b610627828285610563565b600060209050601f83116001811461065a5760008415610648578287015190505b61065285826105d4565b8655506106ba565b601f1984166106688661043a565b60005b828110156106905784890151825560018201915060208501945060208101905061066b565b868310156106ad57848901516106a9601f8916826105b6565b8355505b6001600288020188555050505b505050505050565b6106cb81610335565b82525050565b60006020820190506106e660008301846106c2565b92915050565b600082825260208201905092915050565b7f4555524320616464726573732063616e6e6f74206265207a65726f0000000000600082015250565b6000610733601b836106ec565b915061073e826106fd565b602082019050919050565b6000602082019050818103600083015261076281610726565b9050919050565b614654806107786000396000f3fe608060405234801561001057600080fd5b50600436106101f05760003560e01c806395d89b411161010f578063bf76c0ef116100a2578063dd62ed3e11610071578063dd62ed3e146105a6578063ee742b6b146105d6578063f2fde38b146105f2578063f3b0f3b91461060e576101f0565b8063bf76c0ef14610534578063cd3293de14610550578063d20cc66d1461056e578063db006a751461058a576101f0565b8063a924c043116100de578063a924c043146104d6578063ac307773146104f2578063af7d6ca3146104fc578063be47aa0914610518576101f0565b806395d89b4114610439578063963d91d5146104575780639dc29fac1461048a578063a9059cbb146104a6576101f0565b80636293d3491161018757806384fd54771161015657806384fd54771461039f5780638da5cb5b146103cf578063938215cf146103ed578063958b79731461041d576101f0565b80636293d3491461030557806363c742ad1461033557806370a0823114610365578063715018a614610395576101f0565b806323b872dd116101c357806323b872dd1461027d578063313ce567146102ad57806344ed364b146102cb57806347f7626c146102e9576101f0565b806306fdde03146101f5578063095ea7b314610213578063133adab61461024357806318160ddd1461025f575b600080fd5b6101fd61062c565b60405161020a9190612f7c565b60405180910390f35b61022d60048036038101906102289190613046565b6106be565b60405161023a91906130a1565b60405180910390f35b61025d600480360381019061025891906130bc565b6106e1565b005b610267610813565b60405161027491906130f8565b60405180910390f35b61029760048036038101906102929190613113565b61081d565b6040516102a491906130a1565b60405180910390f35b6102b561084c565b6040516102c29190613182565b60405180910390f35b6102d3610855565b6040516102e091906130f8565b60405180910390f35b61030360048036038101906102fe91906132d2565b61085b565b005b61031f600480360381019061031a91906130bc565b610bf3565b60405161032c91906134e2565b60405180910390f35b61034f600480360381019061034a91906130bc565b610d8d565b60405161035c91906130f8565b60405180910390f35b61037f600480360381019061037a91906130bc565b610dd6565b60405161038c91906130f8565b60405180910390f35b61039d610e1e565b005b6103b960048036038101906103b491906130bc565b610e32565b6040516103c691906130a1565b60405180910390f35b6103d7610ec5565b6040516103e49190613513565b60405180910390f35b610407600480360381019061040291906130bc565b610eef565b60405161041491906130a1565b60405180910390f35b610437600480360381019061043291906130bc565b610f45565b005b610441611295565b60405161044e9190612f7c565b60405180910390f35b610471600480360381019061046c9190613046565b611327565b604051610481949392919061352e565b60405180910390f35b6104a4600480360381019061049f9190613046565b61141c565b005b6104c060048036038101906104bb9190613046565b611499565b6040516104cd91906130a1565b60405180910390f35b6104f060048036038101906104eb91906130bc565b6114bc565b005b6104fa61165e565b005b61051660048036038101906105119190613046565b6119f3565b005b610532600480360381019061052d91906130bc565b611b9c565b005b61054e600480360381019061054991906130bc565b611d3d565b005b610558611e70565b6040516105659190613513565b60405180910390f35b61058860048036038101906105839190613046565b611e96565b005b6105a4600480360381019061059f919061357a565b612066565b005b6105c060048036038101906105bb91906135a7565b6122fa565b6040516105cd91906130f8565b60405180910390f35b6105f060048036038101906105eb91906130bc565b612381565b005b61060c600480360381019061060791906130bc565b6124be565b005b610616612544565b6040516106239190613646565b60405180910390f35b60606003805461063b90613690565b80601f016020809104026020016040519081016040528092919081815260200182805461066790613690565b80156106b45780601f10610689576101008083540402835291602001916106b4565b820191906000526020600020905b81548152906001019060200180831161069757829003601f168201915b5050505050905090565b6000806106c961256a565b90506106d6818585612572565b600191505092915050565b6106e9612584565b600c60008273ffffffffffffffffffffffffffffffffffffffff1673ffffffffffffffffffffffffffffffffffffffff16815260200190815260200160002060009054906101000a900460ff16610775576040517f08c379a000000000000000000000000000000000000000000000000000000000815260040161076c9061370d565b60405180910390fd5b6000600c60008373ffffffffffffffffffffffffffffffffffffffff1673ffffffffffffffffffffffffffffffffffffffff16815260200190815260200160002060006101000a81548160ff0219169083151502179055508073ffffffffffffffffffffffffffffffffffffffff167fae4bdf5adabafca6721399496d24fe50fb6564effcb386fbae92de33540763bc60405160405180910390a250565b6000600254905090565b60008061082861256a565b905061083585828561266a565b6108408585856126fe565b60019150509392505050565b60006006905090565b60095481565b6108636127f2565b61086b612584565b600073ffffffffffffffffffffffffffffffffffffffff168473ffffffffffffffffffffffffffffffffffffffff16036108da576040517f08c379a00000000000000000000000000000000000000000000000000000000081526004016108d190613779565b60405180910390fd5b600073ffffffffffffffffffffffffffffffffffffffff168373ffffffffffffffffffffffffffffffffffffffff1603610949576040517f08c379a0000000000000000000000000000000000000000000000000000000008152600401610940906137e5565b60405180910390fd5b600082511161098d576040517f08c379a000000000000000000000000000000000000000000000000000000000815260040161098490613851565b60405180910390fd5b600081116109d0576040517f08c379a00000000000000000000000000000000000000000000000000000000081526004016109c7906138bd565b60405180910390fd5b806109fc600a60009054906101000a900473ffffffffffffffffffffffffffffffffffffffff16610dd6565b1015610a3d576040517f08c379a0000000000000000000000000000000000000000000000000000000008152600401610a3490613929565b60405180910390fd5b600b60008573ffffffffffffffffffffffffffffffffffffffff1673ffffffffffffffffffffffffffffffffffffffff16815260200190815260200160002060405180608001604052808573ffffffffffffffffffffffffffffffffffffffff16815260200184815260200183815260200142815250908060018154018082558091505060019003906000526020600020906004020160009091909190915060008201518160000160006101000a81548173ffffffffffffffffffffffffffffffffffffffff021916908373ffffffffffffffffffffffffffffffffffffffff1602179055506020820151816001019081610b389190613aeb565b5060408201518160020155606082015181600301555050610b7c600a60009054906101000a900473ffffffffffffffffffffffffffffffffffffffff1685836126fe565b8273ffffffffffffffffffffffffffffffffffffffff168473ffffffffffffffffffffffffffffffffffffffff167f2217aaaa895bbdd1a205c043a5d4d8387892926039fdd79c552fc48446d52379848442604051610bdd93929190613bbd565b60405180910390a3610bed612838565b50505050565b6060600b60008373ffffffffffffffffffffffffffffffffffffffff1673ffffffffffffffffffffffffffffffffffffffff168152602001908152602001600020805480602002602001604051908101604052809291908181526020016000905b82821015610d8257838290600052602060002090600402016040518060800160405290816000820160009054906101000a900473ffffffffffffffffffffffffffffffffffffffff1673ffffffffffffffffffffffffffffffffffffffff1673ffffffffffffffffffffffffffffffffffffffff168152602001600182018054610cdd90613690565b80601f0160208091040260200160405190810160405280929190818152602001828054610d0990613690565b8015610d565780601f10610d2b57610100808354040283529160200191610d56565b820191906000526020600020905b815481529060010190602001808311610d3957829003601f168201915b505050505081526020016002820154815260200160038201548152505081526020019060010190610c54565b505050509050919050565b6000600d60008373ffffffffffffffffffffffffffffffffffffffff1673ffffffffffffffffffffffffffffffffffffffff168152602001908152602001600020549050919050565b60008060008373ffffffffffffffffffffffffffffffffffffffff1673ffffffffffffffffffffffffffffffffffffffff168152602001908152602001600020549050919050565b610e26612842565b610e3060006128c9565b565b60008173ffffffffffffffffffffffffffffffffffffffff16610e53610ec5565b73ffffffffffffffffffffffffffffffffffffffff161480610ebe5750600660008373ffffffffffffffffffffffffffffffffffffffff1673ffffffffffffffffffffffffffffffffffffffff16815260200190815260200160002060009054906101000a900460ff165b9050919050565b6000600560009054906101000a900473ffffffffffffffffffffffffffffffffffffffff16905090565b6000600c60008373ffffffffffffffffffffffffffffffffffffffff1673ffffffffffffffffffffffffffffffffffffffff16815260200190815260200160002060009054906101000a900460ff169050919050565b610f4d6127f2565b610f55612584565b6000600b60008373ffffffffffffffffffffffffffffffffffffffff1673ffffffffffffffffffffffffffffffffffffffff168152602001908152602001600020905060004290506000805b838054905081101561124f576301e13380848281548110610fc557610fc4613bfb565b5b90600052602060002090600402016003015484610fe29190613c59565b111561123c57838181548110610ffb57610ffa613bfb565b5b906000526020600020906004020160020154826110189190613c8d565b91508473ffffffffffffffffffffffffffffffffffffffff167f6faa8f391f9b8a23816b02c112d1b4f1d7812d7dbb7ece2d9682fd169fca822485838154811061106557611064613bfb565b5b906000526020600020906004020160010186848154811061108957611088613bfb565b5b9060005260206000209060040201600201548785815481106110ae576110ad613bfb565b5b9060005260206000209060040201600301546040516110cf93929190613d45565b60405180910390a283600185805490506110e99190613c59565b815481106110fa576110f9613bfb565b5b906000526020600020906004020184828154811061111b5761111a613bfb565b5b90600052602060002090600402016000820160009054906101000a900473ffffffffffffffffffffffffffffffffffffffff168160000160006101000a81548173ffffffffffffffffffffffffffffffffffffffff021916908373ffffffffffffffffffffffffffffffffffffffff160217905550600182018160010190816111a49190613d99565b506002820154816002015560038201548160030155905050838054806111cd576111cc613e81565b5b6001900381819060005260206000209060040201600080820160006101000a81549073ffffffffffffffffffffffffffffffffffffffff02191690556001820160006112199190612e8f565b6002820160009055600382016000905550509055808061123890613eb0565b9150505b808061124790613ed9565b915050610fa1565b5060008111156112875761128684600a60009054906101000a900473ffffffffffffffffffffffffffffffffffffffff16836126fe565b5b505050611292612838565b50565b6060600480546112a490613690565b80601f01602080910402602001604051908101604052809291908181526020018280546112d090613690565b801561131d5780601f106112f25761010080835404028352916020019161131d565b820191906000526020600020905b81548152906001019060200180831161130057829003601f168201915b5050505050905090565b600b602052816000526040600020818154811061134357600080fd5b9060005260206000209060040201600091509150508060000160009054906101000a900473ffffffffffffffffffffffffffffffffffffffff169080600101805461138d90613690565b80601f01602080910402602001604051908101604052809291908181526020018280546113b990613690565b80156114065780601f106113db57610100808354040283529160200191611406565b820191906000526020600020905b8154815290600101906020018083116113e957829003601f168201915b5050505050908060020154908060030154905084565b611424612584565b61142e828261298f565b80600960008282546114409190613c59565b925050819055508173ffffffffffffffffffffffffffffffffffffffff167fdb22e5c8b2988d121f62b77e6bb7460e55931ebccb87cd6c1ac89ac7d7b975718260405161148d91906130f8565b60405180910390a25050565b6000806114a461256a565b90506114b18185856126fe565b600191505092915050565b6114c4612842565b600073ffffffffffffffffffffffffffffffffffffffff168173ffffffffffffffffffffffffffffffffffffffff1603611533576040517f08c379a000000000000000000000000000000000000000000000000000000000815260040161152a90613f6d565b60405180910390fd5b600660008273ffffffffffffffffffffffffffffffffffffffff1673ffffffffffffffffffffffffffffffffffffffff16815260200190815260200160002060009054906101000a900460ff16156115c0576040517f08c379a00000000000000000000000000000000000000000000000000000000081526004016115b790613fd9565b60405180910390fd5b6001600660008373ffffffffffffffffffffffffffffffffffffffff1673ffffffffffffffffffffffffffffffffffffffff16815260200190815260200160002060006101000a81548160ff0219169083151502179055508073ffffffffffffffffffffffffffffffffffffffff167f5d4494741d465e91754a74831c82925e4f848bc6c191d4324527b5a1e9628ed460405160405180910390a250565b6116666127f2565b600c60003373ffffffffffffffffffffffffffffffffffffffff1673ffffffffffffffffffffffffffffffffffffffff16815260200190815260200160002060009054906101000a900460ff166116f2576040517f08c379a00000000000000000000000000000000000000000000000000000000081526004016116e990614045565b60405180910390fd5b6000600d60003373ffffffffffffffffffffffffffffffffffffffff1673ffffffffffffffffffffffffffffffffffffffff16815260200190815260200160002054905060008111611779576040517f08c379a0000000000000000000000000000000000000000000000000000000008152600401611770906140b1565b60405180910390fd5b80600860009054906101000a900473ffffffffffffffffffffffffffffffffffffffff1673ffffffffffffffffffffffffffffffffffffffff166370a08231306040518263ffffffff1660e01b81526004016117d59190613513565b602060405180830381865afa1580156117f2573d6000803e3d6000fd5b505050506040513d601f19601f8201168201806040525081019061181691906140e6565b1015611857576040517f08c379a000000000000000000000000000000000000000000000000000000000815260040161184e9061415f565b60405180910390fd5b6000600d60003373ffffffffffffffffffffffffffffffffffffffff1673ffffffffffffffffffffffffffffffffffffffff1681526020019081526020016000208190555080600960008282546118ae9190613c59565b925050819055506000600860009054906101000a900473ffffffffffffffffffffffffffffffffffffffff1673ffffffffffffffffffffffffffffffffffffffff1663a9059cbb33846040518363ffffffff1660e01b815260040161191492919061417f565b6020604051808303816000875af1158015611933573d6000803e3d6000fd5b505050506040513d601f19601f8201168201806040525081019061195791906141d4565b905080611999576040517f08c379a00000000000000000000000000000000000000000000000000000000081526004016119909061424d565b60405180910390fd5b3373ffffffffffffffffffffffffffffffffffffffff167fb4f7fe5d1d3c83baaaaba8babc20ddc40590fb368df43c0a465df58af2abc845836040516119df91906130f8565b60405180910390a250506119f1612838565b565b6119fb6127f2565b600c60008373ffffffffffffffffffffffffffffffffffffffff1673ffffffffffffffffffffffffffffffffffffffff16815260200190815260200160002060009054906101000a900460ff16611a87576040517f08c379a0000000000000000000000000000000000000000000000000000000008152600401611a7e906142b9565b60405180910390fd5b60008111611aca576040517f08c379a0000000000000000000000000000000000000000000000000000000008152600401611ac190614325565b60405180910390fd5b611ad53330836126fe565b80600d60008473ffffffffffffffffffffffffffffffffffffffff1673ffffffffffffffffffffffffffffffffffffffff1681526020019081526020016000206000828254611b249190613c8d565b925050819055508173ffffffffffffffffffffffffffffffffffffffff163373ffffffffffffffffffffffffffffffffffffffff167fc3e3c8fa32f3647da7a0e391efd18fa8aef3e8243535a100e7b4f2cb9a8c103583604051611b8891906130f8565b60405180910390a3611b98612838565b5050565b611ba4612842565b600073ffffffffffffffffffffffffffffffffffffffff168173ffffffffffffffffffffffffffffffffffffffff1603611c13576040517f08c379a0000000000000000000000000000000000000000000000000000000008152600401611c0a90613f6d565b60405180910390fd5b600660008273ffffffffffffffffffffffffffffffffffffffff1673ffffffffffffffffffffffffffffffffffffffff16815260200190815260200160002060009054906101000a900460ff16611c9f576040517f08c379a0000000000000000000000000000000000000000000000000000000008152600401611c9690614391565b60405180910390fd5b6000600660008373ffffffffffffffffffffffffffffffffffffffff1673ffffffffffffffffffffffffffffffffffffffff16815260200190815260200160002060006101000a81548160ff0219169083151502179055508073ffffffffffffffffffffffffffffffffffffffff167f56a53756e1db2ff35a90edee9bd205b4b2bb8633ee3d6a53a5e85d5b46f0e9dc60405160405180910390a250565b611d45612584565b600c60008273ffffffffffffffffffffffffffffffffffffffff1673ffffffffffffffffffffffffffffffffffffffff16815260200190815260200160002060009054906101000a900460ff1615611dd2576040517f08c379a0000000000000000000000000000000000000000000000000000000008152600401611dc9906143fd565b60405180910390fd5b6001600c60008373ffffffffffffffffffffffffffffffffffffffff1673ffffffffffffffffffffffffffffffffffffffff16815260200190815260200160002060006101000a81548160ff0219169083151502179055508073ffffffffffffffffffffffffffffffffffffffff167fc197da77b28f3c45c06c05226a579905fd0692f6603bd04fa0ed262f79e9195860405160405180910390a250565b600a60009054906101000a900473ffffffffffffffffffffffffffffffffffffffff1681565b611e9e612584565b611ea66127f2565b60008111611ee9576040517f08c379a0000000000000000000000000000000000000000000000000000000008152600401611ee09061448f565b60405180910390fd5b6000600860009054906101000a900473ffffffffffffffffffffffffffffffffffffffff1673ffffffffffffffffffffffffffffffffffffffff166323b872dd3330856040518463ffffffff1660e01b8152600401611f4a939291906144af565b6020604051808303816000875af1158015611f69573d6000803e3d6000fd5b505050506040513d601f19601f82011682018060405250810190611f8d91906141d4565b905080611fcf576040517f08c379a0000000000000000000000000000000000000000000000000000000008152600401611fc69061424d565b60405180910390fd5b611fd98383612a11565b8160096000828254611feb9190613c8d565b925050819055508273ffffffffffffffffffffffffffffffffffffffff163373ffffffffffffffffffffffffffffffffffffffff167f25358d97414e445bfb12d0d14fd5caa1d89af5db494db2611909ec12c834baff84856040516120519291906144e6565b60405180910390a350612062612838565b5050565b61206e6127f2565b8061207833610dd6565b10156120b9576040517f08c379a00000000000000000000000000000000000000000000000000000000081526004016120b09061455b565b60405180910390fd5b80600860009054906101000a900473ffffffffffffffffffffffffffffffffffffffff1673ffffffffffffffffffffffffffffffffffffffff166370a08231306040518263ffffffff1660e01b81526004016121159190613513565b602060405180830381865afa158015612132573d6000803e3d6000fd5b505050506040513d601f19601f8201168201806040525081019061215691906140e6565b1015612197576040517f08c379a000000000000000000000000000000000000000000000000000000000815260040161218e9061415f565b60405180910390fd5b6121a1338261298f565b80600960008282546121b39190613c59565b925050819055506000600860009054906101000a900473ffffffffffffffffffffffffffffffffffffffff1673ffffffffffffffffffffffffffffffffffffffff1663a9059cbb33846040518363ffffffff1660e01b815260040161221992919061417f565b6020604051808303816000875af1158015612238573d6000803e3d6000fd5b505050506040513d601f19601f8201168201806040525081019061225c91906141d4565b90508061229e576040517f08c379a00000000000000000000000000000000000000000000000000000000081526004016122959061424d565b60405180910390fd5b3373ffffffffffffffffffffffffffffffffffffffff167f13b410e949a4cd4595a7b7e6fe689b9dd9d76b00a2815ec59b01a981a9e050af83846040516122e69291906144e6565b60405180910390a2506122f7612838565b50565b6000600160008473ffffffffffffffffffffffffffffffffffffffff1673ffffffffffffffffffffffffffffffffffffffff16815260200190815260200160002060008373ffffffffffffffffffffffffffffffffffffffff1673ffffffffffffffffffffffffffffffffffffffff16815260200190815260200160002054905092915050565b612389612584565b600073ffffffffffffffffffffffffffffffffffffffff168173ffffffffffffffffffffffffffffffffffffffff16036123f8576040517f08c379a00000000000000000000000000000000000000000000000000000000081526004016123ef906145c7565b60405180910390fd5b6000600a60009054906101000a900473ffffffffffffffffffffffffffffffffffffffff16905081600a60006101000a81548173ffffffffffffffffffffffffffffffffffffffff021916908373ffffffffffffffffffffffffffffffffffffffff1602179055508173ffffffffffffffffffffffffffffffffffffffff168173ffffffffffffffffffffffffffffffffffffffff167fbd45c5f5d28e3962d234f9fa4e443f6f92e4525b10556e441307306fab9f9e0360405160405180910390a35050565b6124c6612842565b600073ffffffffffffffffffffffffffffffffffffffff168173ffffffffffffffffffffffffffffffffffffffff16036125385760006040517f1e4fbdf700000000000000000000000000000000000000000000000000000000815260040161252f9190613513565b60405180910390fd5b612541816128c9565b50565b600860009054906101000a900473ffffffffffffffffffffffffffffffffffffffff1681565b600033905090565b61257f8383836001612a93565b505050565b61258c61256a565b73ffffffffffffffffffffffffffffffffffffffff166125aa610ec5565b73ffffffffffffffffffffffffffffffffffffffff161415801561261f5750600660006125d561256a565b73ffffffffffffffffffffffffffffffffffffffff1673ffffffffffffffffffffffffffffffffffffffff16815260200190815260200160002060009054906101000a900460ff16155b156126685761262c61256a565b6040517f118cdaa700000000000000000000000000000000000000000000000000000000815260040161265f9190613513565b60405180910390fd5b565b600061267684846122fa565b90507fffffffffffffffffffffffffffffffffffffffffffffffffffffffffffffffff81146126f857818110156126e8578281836040517ffb8f41b20000000000000000000000000000000000000000000000000000000081526004016126df939291906145e7565b60405180910390fd5b6126f784848484036000612a93565b5b50505050565b600073ffffffffffffffffffffffffffffffffffffffff168373ffffffffffffffffffffffffffffffffffffffff16036127705760006040517f96c6fd1e0000000000000000000000000000000000000000000000000000000081526004016127679190613513565b60405180910390fd5b600073ffffffffffffffffffffffffffffffffffffffff168273ffffffffffffffffffffffffffffffffffffffff16036127e25760006040517fec442f050000000000000000000000000000000000000000000000000000000081526004016127d99190613513565b60405180910390fd5b6127ed838383612c6a565b505050565b60026007540361282e576040517f3ee5aeb500000000000000000000000000000000000000000000000000000000815260040160405180910390fd5b6002600781905550565b6001600781905550565b61284a61256a565b73ffffffffffffffffffffffffffffffffffffffff16612868610ec5565b73ffffffffffffffffffffffffffffffffffffffff16146128c75761288b61256a565b6040517f118cdaa70000000000000000000000000000000000000000000000000000000081526004016128be9190613513565b60405180910390fd5b565b6000600560009054906101000a900473ffffffffffffffffffffffffffffffffffffffff16905081600560006101000a81548173ffffffffffffffffffffffffffffffffffffffff021916908373ffffffffffffffffffffffffffffffffffffffff1602179055508173ffffffffffffffffffffffffffffffffffffffff168173ffffffffffffffffffffffffffffffffffffffff167f8be0079c531659141344cd1fd0a4f28419497f9722a3daafe3b4186f6b6457e060405160405180910390a35050565b600073ffffffffffffffffffffffffffffffffffffffff168273ffffffffffffffffffffffffffffffffffffffff1603612a015760006040517f96c6fd1e0000000000000000000000000000000000000000000000000000000081526004016129f89190613513565b60405180910390fd5b612a0d82600083612c6a565b5050565b600073ffffffffffffffffffffffffffffffffffffffff168273ffffffffffffffffffffffffffffffffffffffff1603612a835760006040517fec442f05000000000000000000000000000000000000000000000000000000008152600401612a7a9190613513565b60405180910390fd5b612a8f60008383612c6a565b5050565b600073ffffffffffffffffffffffffffffffffffffffff168473ffffffffffffffffffffffffffffffffffffffff1603612b055760006040517fe602df05000000000000000000000000000000000000000000000000000000008152600401612afc9190613513565b60405180910390fd5b600073ffffffffffffffffffffffffffffffffffffffff168373ffffffffffffffffffffffffffffffffffffffff1603612b775760006040517f94280d62000000000000000000000000000000000000000000000000000000008152600401612b6e9190613513565b60405180910390fd5b81600160008673ffffffffffffffffffffffffffffffffffffffff1673ffffffffffffffffffffffffffffffffffffffff16815260200190815260200160002060008573ffffffffffffffffffffffffffffffffffffffff1673ffffffffffffffffffffffffffffffffffffffff168152602001908152602001600020819055508015612c64578273ffffffffffffffffffffffffffffffffffffffff168473ffffffffffffffffffffffffffffffffffffffff167f8c5be1e5ebec7d5bd14f71427d1e84f3dd0314c0f7b2291e5b200ac8c7c3b92584604051612c5b91906130f8565b60405180910390a35b50505050565b600073ffffffffffffffffffffffffffffffffffffffff168373ffffffffffffffffffffffffffffffffffffffff1603612cbc578060026000828254612cb09190613c8d565b92505081905550612d8f565b60008060008573ffffffffffffffffffffffffffffffffffffffff1673ffffffffffffffffffffffffffffffffffffffff16815260200190815260200160002054905081811015612d48578381836040517fe450d38c000000000000000000000000000000000000000000000000000000008152600401612d3f939291906145e7565b60405180910390fd5b8181036000808673ffffffffffffffffffffffffffffffffffffffff1673ffffffffffffffffffffffffffffffffffffffff16815260200190815260200160002081905550505b600073ffffffffffffffffffffffffffffffffffffffff168273ffffffffffffffffffffffffffffffffffffffff1603612dd85780600260008282540392505081905550612e25565b806000808473ffffffffffffffffffffffffffffffffffffffff1673ffffffffffffffffffffffffffffffffffffffff168152602001908152602001600020600082825401925050819055505b8173ffffffffffffffffffffffffffffffffffffffff168373ffffffffffffffffffffffffffffffffffffffff167fddf252ad1be2c89b69c2b068fc378daa952ba7f163c4a11628f55a4df523b3ef83604051612e8291906130f8565b60405180910390a3505050565b508054612e9b90613690565b6000825580601f10612ead5750612ecc565b601f016020900490600052602060002090810190612ecb9190612ecf565b5b50565b5b80821115612ee8576000816000905550600101612ed0565b5090565b600081519050919050565b600082825260208201905092915050565b60005b83811015612f26578082015181840152602081019050612f0b565b60008484015250505050565b6000601f19601f8301169050919050565b6000612f4e82612eec565b612f588185612ef7565b9350612f68818560208601612f08565b612f7181612f32565b840191505092915050565b60006020820190508181036000830152612f968184612f43565b905092915050565b6000604051905090565b600080fd5b600080fd5b600073ffffffffffffffffffffffffffffffffffffffff82169050919050565b6000612fdd82612fb2565b9050919050565b612fed81612fd2565b8114612ff857600080fd5b50565b60008135905061300a81612fe4565b92915050565b6000819050919050565b61302381613010565b811461302e57600080fd5b50565b6000813590506130408161301a565b92915050565b6000806040838503121561305d5761305c612fa8565b5b600061306b85828601612ffb565b925050602061307c85828601613031565b9150509250929050565b60008115159050919050565b61309b81613086565b82525050565b60006020820190506130b66000830184613092565b92915050565b6000602082840312156130d2576130d1612fa8565b5b60006130e084828501612ffb565b91505092915050565b6130f281613010565b82525050565b600060208201905061310d60008301846130e9565b92915050565b60008060006060848603121561312c5761312b612fa8565b5b600061313a86828701612ffb565b935050602061314b86828701612ffb565b925050604061315c86828701613031565b9150509250925092565b600060ff82169050919050565b61317c81613166565b82525050565b60006020820190506131976000830184613173565b92915050565b600080fd5b600080fd5b7f4e487b7100000000000000000000000000000000000000000000000000000000600052604160045260246000fd5b6131df82612f32565b810181811067ffffffffffffffff821117156131fe576131fd6131a7565b5b80604052505050565b6000613211612f9e565b905061321d82826131d6565b919050565b600067ffffffffffffffff82111561323d5761323c6131a7565b5b61324682612f32565b9050602081019050919050565b82818337600083830152505050565b600061327561327084613222565b613207565b905082815260208101848484011115613291576132906131a2565b5b61329c848285613253565b509392505050565b600082601f8301126132b9576132b861319d565b5b81356132c9848260208601613262565b91505092915050565b600080600080608085870312156132ec576132eb612fa8565b5b60006132fa87828801612ffb565b945050602061330b87828801612ffb565b935050604085013567ffffffffffffffff81111561332c5761332b612fad565b5b613338878288016132a4565b925050606061334987828801613031565b91505092959194509250565b600081519050919050565b600082825260208201905092915050565b6000819050602082019050919050565b61338a81612fd2565b82525050565b600082825260208201905092915050565b60006133ac82612eec565b6133b68185613390565b93506133c6818560208601612f08565b6133cf81612f32565b840191505092915050565b6133e381613010565b82525050565b60006080830160008301516134016000860182613381565b506020830151848203602086015261341982826133a1565b915050604083015161342e60408601826133da565b50606083015161344160608601826133da565b508091505092915050565b600061345883836133e9565b905092915050565b6000602082019050919050565b600061347882613355565b6134828185613360565b93508360208202850161349485613371565b8060005b858110156134d057848403895281516134b1858261344c565b94506134bc83613460565b925060208a01995050600181019050613498565b50829750879550505050505092915050565b600060208201905081810360008301526134fc818461346d565b905092915050565b61350d81612fd2565b82525050565b60006020820190506135286000830184613504565b92915050565b60006080820190506135436000830187613504565b81810360208301526135558186612f43565b905061356460408301856130e9565b61357160608301846130e9565b95945050505050565b6000602082840312156135905761358f612fa8565b5b600061359e84828501613031565b91505092915050565b600080604083850312156135be576135bd612fa8565b5b60006135cc85828601612ffb565b92505060206135dd85828601612ffb565b9150509250929050565b6000819050919050565b600061360c61360761360284612fb2565b6135e7565b612fb2565b9050919050565b600061361e826135f1565b9050919050565b600061363082613613565b9050919050565b61364081613625565b82525050565b600060208201905061365b6000830184613637565b92915050565b7f4e487b7100000000000000000000000000000000000000000000000000000000600052602260045260246000fd5b600060028204905060018216806136a857607f821691505b6020821081036136bb576136ba613661565b5b50919050565b7f4d65726368616e74206e6f7420617070726f7665640000000000000000000000600082015250565b60006136f7601583612ef7565b9150613702826136c1565b602082019050919050565b60006020820190508181036000830152613726816136ea565b9050919050565b7f496e76616c696420766f6c756e74656572206164647265737300000000000000600082015250565b6000613763601983612ef7565b915061376e8261372d565b602082019050919050565b6000602082019050818103600083015261379281613756565b9050919050565b7f496e76616c6964206f7267616e69736d20616464726573730000000000000000600082015250565b60006137cf601883612ef7565b91506137da82613799565b602082019050919050565b600060208201905081810360008301526137fe816137c2565b9050919050565b7f4465736372697074696f6e2063616e6e6f7420626520656d7074790000000000600082015250565b600061383b601b83612ef7565b915061384682613805565b602082019050919050565b6000602082019050818103600083015261386a8161382e565b9050919050565b7f526577617264206d7573742062652067726561746572207468616e207a65726f600082015250565b60006138a7602083612ef7565b91506138b282613871565b602082019050919050565b600060208201905081810360008301526138d68161389a565b9050919050565b7f496e73756666696369656e7420726573657276652062616c616e636500000000600082015250565b6000613913601c83612ef7565b915061391e826138dd565b602082019050919050565b6000602082019050818103600083015261394281613906565b9050919050565b60008190508160005260206000209050919050565b60006020601f8301049050919050565b600082821b905092915050565b6000600883026139ab7fffffffffffffffffffffffffffffffffffffffffffffffffffffffffffffffff8261396e565b6139b5868361396e565b95508019841693508086168417925050509392505050565b60006139e86139e36139de84613010565b6135e7565b613010565b9050919050565b6000819050919050565b613a02836139cd565b613a16613a0e826139ef565b84845461397b565b825550505050565b600090565b613a2b613a1e565b613a368184846139f9565b505050565b5b81811015613a5a57613a4f600082613a23565b600181019050613a3c565b5050565b601f821115613a9f57613a7081613949565b613a798461395e565b81016020851015613a88578190505b613a9c613a948561395e565b830182613a3b565b50505b505050565b600082821c905092915050565b6000613ac260001984600802613aa4565b1980831691505092915050565b6000613adb8383613ab1565b9150826002028217905092915050565b613af482612eec565b67ffffffffffffffff811115613b0d57613b0c6131a7565b5b613b178254613690565b613b22828285613a5e565b600060209050601f831160018114613b555760008415613b43578287015190505b613b4d8582613acf565b865550613bb5565b601f198416613b6386613949565b60005b82811015613b8b57848901518255600182019150602085019450602081019050613b66565b86831015613ba85784890151613ba4601f891682613ab1565b8355505b6001600288020188555050505b505050505050565b60006060820190508181036000830152613bd78186612f43565b9050613be660208301856130e9565b613bf360408301846130e9565b949350505050565b7f4e487b7100000000000000000000000000000000000000000000000000000000600052603260045260246000fd5b7f4e487b7100000000000000000000000000000000000000000000000000000000600052601160045260246000fd5b6000613c6482613010565b9150613c6f83613010565b9250828203905081811115613c8757613c86613c2a565b5b92915050565b6000613c9882613010565b9150613ca383613010565b9250828201905080821115613cbb57613cba613c2a565b5b92915050565b60008154613cce81613690565b613cd88186612ef7565b94506001821660008114613cf35760018114613d0957613d3c565b60ff198316865281151560200286019350613d3c565b613d1285613949565b60005b83811015613d3457815481890152600182019150602081019050613d15565b808801955050505b50505092915050565b60006060820190508181036000830152613d5f8186613cc1565b9050613d6e60208301856130e9565b613d7b60408301846130e9565b949350505050565b600081549050613d9281613690565b9050919050565b818103613da7575050613e7f565b613db082613d83565b67ffffffffffffffff811115613dc957613dc86131a7565b5b613dd38254613690565b613dde828285613a5e565b6000601f831160018114613e0d5760008415613dfb578287015490505b613e058582613acf565b865550613e78565b601f198416613e1b87613949565b9650613e2686613949565b60005b82811015613e4e57848901548255600182019150600185019450602081019050613e29565b86831015613e6b5784890154613e67601f891682613ab1565b8355505b6001600288020188555050505b5050505050505b565b7f4e487b7100000000000000000000000000000000000000000000000000000000600052603160045260246000fd5b6000613ebb82613010565b915060008203613ece57613ecd613c2a565b5b600182039050919050565b6000613ee482613010565b91507fffffffffffffffffffffffffffffffffffffffffffffffffffffffffffffffff8203613f1657613f15613c2a565b5b600182019050919050565b7f496e76616c696420616464726573730000000000000000000000000000000000600082015250565b6000613f57600f83612ef7565b9150613f6282613f21565b602082019050919050565b60006020820190508181036000830152613f8681613f4a565b9050919050565b7f4163636f756e7420616c726561647920617574686f72697a6564000000000000600082015250565b6000613fc3601a83612ef7565b9150613fce82613f8d565b602082019050919050565b60006020820190508181036000830152613ff281613fb6565b9050919050565b7f43616c6c6572206973206e6f742061206d65726368616e740000000000000000600082015250565b600061402f601883612ef7565b915061403a82613ff9565b602082019050919050565b6000602082019050818103600083015261405e81614022565b9050919050565b7f4e6f2062616c616e636520746f20636c61696d00000000000000000000000000600082015250565b600061409b601383612ef7565b91506140a682614065565b602082019050919050565b600060208201905081810360008301526140ca8161408e565b9050919050565b6000815190506140e08161301a565b92915050565b6000602082840312156140fc576140fb612fa8565b5b600061410a848285016140d1565b91505092915050565b7f496e73756666696369656e74204555524320696e207265736572766500000000600082015250565b6000614149601c83612ef7565b915061415482614113565b602082019050919050565b600060208201905081810360008301526141788161413c565b9050919050565b60006040820190506141946000830185613504565b6141a160208301846130e9565b9392505050565b6141b181613086565b81146141bc57600080fd5b50565b6000815190506141ce816141a8565b92915050565b6000602082840312156141ea576141e9612fa8565b5b60006141f8848285016141bf565b91505092915050565b7f45555243207472616e73666572206661696c6564000000000000000000000000600082015250565b6000614237601483612ef7565b915061424282614201565b602082019050919050565b600060208201905081810360008301526142668161422a565b9050919050565b7f4e6f7420616e20617070726f766564206d65726368616e740000000000000000600082015250565b60006142a3601883612ef7565b91506142ae8261426d565b602082019050919050565b600060208201905081810360008301526142d281614296565b9050919050565b7f416d6f756e74206d7573742062652067726561746572207468616e207a65726f600082015250565b600061430f602083612ef7565b915061431a826142d9565b602082019050919050565b6000602082019050818103600083015261433e81614302565b9050919050565b7f4163636f756e74206e6f7420617574686f72697a656400000000000000000000600082015250565b600061437b601683612ef7565b915061438682614345565b602082019050919050565b600060208201905081810360008301526143aa8161436e565b9050919050565b7f4d65726368616e7420616c726561647920617070726f76656400000000000000600082015250565b60006143e7601983612ef7565b91506143f2826143b1565b602082019050919050565b60006020820190508181036000830152614416816143da565b9050919050565b7f4555524320616d6f756e74206d7573742062652067726561746572207468616e60008201527f207a65726f000000000000000000000000000000000000000000000000000000602082015250565b6000614479602583612ef7565b91506144848261441d565b604082019050919050565b600060208201905081810360008301526144a88161446c565b9050919050565b60006060820190506144c46000830186613504565b6144d16020830185613504565b6144de60408301846130e9565b949350505050565b60006040820190506144fb60008301856130e9565b61450860208301846130e9565b9392505050565b7f496e73756666696369656e74204575736b6f2062616c616e6365000000000000600082015250565b6000614545601a83612ef7565b91506145508261450f565b602082019050919050565b6000602082019050818103600083015261457481614538565b9050919050565b7f496e76616c6964206e6577207265736572766520616464726573730000000000600082015250565b60006145b1601b83612ef7565b91506145bc8261457b565b602082019050919050565b600060208201905081810360008301526145e0816145a4565b9050919050565b60006060820190506145fc6000830186613504565b61460960208301856130e9565b61461660408301846130e9565b94935050505056fea26469706673582212204e1a9f2e6f9ce021df69309b9a769d13c702d60ac5863443aa74b210af08e77e64736f6c634300081c0033",
  "linkReferences": {},
  "deployedLinkReferences": {}
}