{
  "_format": "hh-sol-artifact-1",
  "contractName": "EuskoMultiSig",
  "sourceName": "contracts/EuskoMultiSig.sol",
  "abi": [
    {
      "inputs": [
        {
          "internalType": "address[]",
          "name": "_signers",
          "type": "address[]"
        },
        {
          "internalType": "uint256",
          "name": "_threshold",
          "type": "uint256"
        }
      ],
      "stateMutability": "nonpayable",
      "type": "constructor"
    },
    {
      "anonymous": false,
      "inputs": [
        {
          "indexed": true,
          "internalType": "address",
          "name": "signer",
          "type": "address"
        },
        {
          "indexed": true,
          "internalType": "uint256",
          "name": "txIndex",
          "type": "uint256"
        }
      ],
      "name": "ConfirmTransaction",
      "type": "event"
    },
    {
      "anonymous": false,
      "inputs": [
        {
          "indexed": true,
          "internalType": "uint256",
          "name": "txIndex",
          "type": "uint256"
        }
      ],
      "name": "ExecuteTransaction",
      "type": "event"
    },
    {
      "anonymous": false,
      "inputs": [
        {
          "indexed": true,
          "internalType": "uint256",
          "name": "txIndex",
          "type": "uint256"
        },
        {
          "indexed": true,
          "internalType": "address",
          "name": "target",
          "type": "address"
        },
        {
          "indexed": false,
          "internalType": "uint256",
          "name": "value",
          "type": "uint256"
        },
        {
          "indexed": false,
          "internalType": "bytes",
          "name": "data",
          "type": "bytes"
        }
      ],
      "name": "SubmitTransaction",
      "type": "event"
    },
    {
      "inputs": [
        {
          "internalType": "address",
          "name": "newSigner",
          "type": "address"
        }
      ],
      "name": "addSigner",
      "outputs": [],
      "stateMutability": "nonpayable",
      "type": "function"
    },
    {
      "inputs": [
        {
          "internalType": "uint256",
          "name": "txIndex",
          "type": "uint256"
        }
      ],
      "name": "confirmTransaction",
      "outputs": [],
      "stateMutability": "nonpayable",
      "type": "function"
    },
    {
      "inputs": [
        {
          "internalType": "uint256",
          "name": "txIndex",
          "type": "uint256"
        }
      ],
      "name": "executeTransaction",
      "outputs": [],
      "stateMutability": "nonpayable",
      "type": "function"
    },
    {
      "inputs": [
        {
          "internalType": "uint256",
          "name": "",
          "type": "uint256"
        },
        {
          "internalType": "address",
          "name": "",
          "type": "address"
        }
      ],
      "name": "isConfirmed",
      "outputs": [
        {
          "internalType": "bool",
          "name": "",
          "type": "bool"
        }
      ],
      "stateMutability": "view",
      "type": "function"
    },
    {
      "inputs": [
        {
          "internalType": "address",
          "name": "account",
          "type": "address"
        }
      ],
      "name": "isSigner",
      "outputs": [
        {
          "internalType": "bool",
          "name": "",
          "type": "bool"
        }
      ],
      "stateMutability": "view",
      "type": "function"
    },
    {
      "inputs": [
        {
          "internalType": "address",
          "name": "oldSigner",
          "type": "address"
        }
      ],
      "name": "removeSigner",
      "outputs": [],
      "stateMutability": "nonpayable",
      "type": "function"
    },
    {
      "inputs": [
        {
          "internalType": "uint256",
          "name": "",
          "type": "uint256"
        }
      ],
      "name": "signers",
      "outputs": [
        {
          "internalType": "address",
          "name": "",
          "type": "address"
        }
      ],
      "stateMutability": "view",
      "type": "function"
    },
    {
      "inputs": [
        {
          "internalType": "address",
          "name": "_target",
          "type": "address"
        },
        {
          "internalType": "uint256",
          "name": "_value",
          "type": "uint256"
        },
        {
          "internalType": "bytes",
          "name": "_data",
          "type": "bytes"
        }
      ],
      "name": "submitTransaction",
      "outputs": [
        {
          "internalType": "uint256",
          "name": "txIndex",
          "type": "uint256"
        }
      ],
      "stateMutability": "nonpayable",
      "type": "function"
    },
    {
      "inputs": [],
      "name": "threshold",
      "outputs": [
        {
          "internalType": "uint256",
          "name": "",
          "type": "uint256"
        }
      ],
      "stateMutability": "view",
      "type": "function"
    },
    {
      "inputs": [
        {
          "internalType": "uint256",
          "name": "",
          "type": "uint256"
        }
      ],
      "name": "transactions",
      "outputs": [
        {
          "internalType": "address",
          "name": "target",
          "type": "address"
        },
        {
          "internalType": "uint256",
          "name": "value",
          "type": "uint256"
        },
        {
          "internalType": "bytes",
          "name": "data",
          "type": "bytes"
        },
        {
          "internalType": "bool",
          "name": "executed",
          "type": "bool"
        },
        {
          "internalType": "uint256",
          "name": "numConfirmations",
          "type": "uint256"
        }
      ],
      "stateMutability": "view",
      "type": "function"
    },
    {
      "inputs": [
        {
          "internalType": "uint256",
          "name": "newThreshold",
          "type": "uint256"
        }
      ],
      "name": "updateThreshold",
      "outputs": [],
      "stateMutability": "nonpayable",
      "type": "function"
    },
    {
      "stateMutability": "payable",
      "type": "receive"
    }
  ],
  "bytecode": "0x608060405234801561001057600080fd5b506040516123f33803806123f3833981810160405281019061003291906103e8565b8082511015610076576040517f08c379a000000000000000000000000000000000000000000000000000000000815260040161006d906104a1565b60405180910390fd5b600081116100b9576040517f08c379a00000000000000000000000000000000000000000000000000000000081526004016100b09061050d565b60405180910390fd5b60005b82518110156101d857600073ffffffffffffffffffffffffffffffffffffffff168382815181106100f0576100ef61052d565b5b602002602001015173ffffffffffffffffffffffffffffffffffffffff160361014e576040517f08c379a0000000000000000000000000000000000000000000000000000000008152600401610145906105a8565b60405180910390fd5b60008382815181106101635761016261052d565b5b60200260200101519080600181540180825580915050600190039060005260206000200160009091909190916101000a81548173ffffffffffffffffffffffffffffffffffffffff021916908373ffffffffffffffffffffffffffffffffffffffff16021790555080806001019150506100bc565b508060018190555050506105c8565b6000604051905090565b600080fd5b600080fd5b600080fd5b6000601f19601f8301169050919050565b7f4e487b7100000000000000000000000000000000000000000000000000000000600052604160045260246000fd5b61024982610200565b810181811067ffffffffffffffff8211171561026857610267610211565b5b80604052505050565b600061027b6101e7565b90506102878282610240565b919050565b600067ffffffffffffffff8211156102a7576102a6610211565b5b602082029050602081019050919050565b600080fd5b600073ffffffffffffffffffffffffffffffffffffffff82169050919050565b60006102e8826102bd565b9050919050565b6102f8816102dd565b811461030357600080fd5b50565b600081519050610315816102ef565b92915050565b600061032e6103298461028c565b610271565b90508083825260208201905060208402830185811115610351576103506102b8565b5b835b8181101561037a57806103668882610306565b845260208401935050602081019050610353565b5050509392505050565b600082601f830112610399576103986101fb565b5b81516103a984826020860161031b565b91505092915050565b6000819050919050565b6103c5816103b2565b81146103d057600080fd5b50565b6000815190506103e2816103bc565b92915050565b600080604083850312156103ff576103fe6101f1565b5b600083015167ffffffffffffffff81111561041d5761041c6101f6565b5b61042985828601610384565b925050602061043a858286016103d3565b9150509250929050565b600082825260208201905092915050565b7f5369676e657273203c207468726573686f6c6400000000000000000000000000600082015250565b600061048b601383610444565b915061049682610455565b602082019050919050565b600060208201905081810360008301526104ba8161047e565b9050919050565b7f496e76616c6964207468726573686f6c64000000000000000000000000000000600082015250565b60006104f7601183610444565b9150610502826104c1565b602082019050919050565b60006020820190508181036000830152610526816104ea565b9050919050565b7f4e487b7100000000000000000000000000000000000000000000000000000000600052603260045260246000fd5b7f5a65726f2061646472657373206e6f7420616c6c6f7765640000000000000000600082015250565b6000610592601883610444565b915061059d8261055c565b602082019050919050565b600060208201905081810360008301526105c181610585565b9050919050565b611e1c806105d76000396000f3fe6080604052600436106100a05760003560e01c80639ace38c2116100645780639ace38c2146101b7578063c01a8c84146101f8578063c642747414610221578063d7d7442f1461025e578063eb12d61e14610287578063ee22610b146102b0576100a7565b80630e316ab7146100ac5780632079fb9a146100d557806342cde4e8146101125780637df73e271461013d57806380f59a651461017a576100a7565b366100a757005b600080fd5b3480156100b857600080fd5b506100d360048036038101906100ce9190611035565b6102d9565b005b3480156100e157600080fd5b506100fc60048036038101906100f79190611098565b610519565b60405161010991906110d4565b60405180910390f35b34801561011e57600080fd5b50610127610558565b60405161013491906110fe565b60405180910390f35b34801561014957600080fd5b50610164600480360381019061015f9190611035565b61055e565b6040516101719190611134565b60405180910390f35b34801561018657600080fd5b506101a1600480360381019061019c919061114f565b610606565b6040516101ae9190611134565b60405180910390f35b3480156101c357600080fd5b506101de60048036038101906101d99190611098565b610635565b6040516101ef95949392919061121f565b60405180910390f35b34801561020457600080fd5b5061021f600480360381019061021a9190611098565b610730565b005b34801561022d57600080fd5b50610248600480360381019061024391906113ae565b61095b565b60405161025591906110fe565b60405180910390f35b34801561026a57600080fd5b5061028560048036038101906102809190611098565b610b03565b005b34801561029357600080fd5b506102ae60048036038101906102a99190611035565b610c06565b005b3480156102bc57600080fd5b506102d760048036038101906102d29190611098565b610d92565b005b3073ffffffffffffffffffffffffffffffffffffffff163373ffffffffffffffffffffffffffffffffffffffff1614610347576040517f08c379a000000000000000000000000000000000000000000000000000000000815260040161033e9061147a565b60405180910390fd5b6103508161055e565b61038f576040517f08c379a0000000000000000000000000000000000000000000000000000000008152600401610386906114e6565b60405180910390fd5b60008080549050905060005b81811015610514578273ffffffffffffffffffffffffffffffffffffffff16600082815481106103ce576103cd611506565b5b9060005260206000200160009054906101000a900473ffffffffffffffffffffffffffffffffffffffff1673ffffffffffffffffffffffffffffffffffffffff16036105075760006001836104239190611564565b8154811061043457610433611506565b5b9060005260206000200160009054906101000a900473ffffffffffffffffffffffffffffffffffffffff166000828154811061047357610472611506565b5b9060005260206000200160006101000a81548173ffffffffffffffffffffffffffffffffffffffff021916908373ffffffffffffffffffffffffffffffffffffffff16021790555060008054806104cd576104cc611598565b5b6001900381819060005260206000200160006101000a81549073ffffffffffffffffffffffffffffffffffffffff02191690559055610514565b808060010191505061039b565b505050565b6000818154811061052957600080fd5b906000526020600020016000915054906101000a900473ffffffffffffffffffffffffffffffffffffffff1681565b60015481565b600080600090505b6000805490508110156105fb578273ffffffffffffffffffffffffffffffffffffffff166000828154811061059e5761059d611506565b5b9060005260206000200160009054906101000a900473ffffffffffffffffffffffffffffffffffffffff1673ffffffffffffffffffffffffffffffffffffffff16036105ee576001915050610601565b8080600101915050610566565b50600090505b919050565b60036020528160005260406000206020528060005260406000206000915091509054906101000a900460ff1681565b6002818154811061064557600080fd5b90600052602060002090600502016000915090508060000160009054906101000a900473ffffffffffffffffffffffffffffffffffffffff1690806001015490806002018054610694906115f6565b80601f01602080910402602001604051908101604052809291908181526020018280546106c0906115f6565b801561070d5780601f106106e25761010080835404028352916020019161070d565b820191906000526020600020905b8154815290600101906020018083116106f057829003601f168201915b5050505050908060030160009054906101000a900460ff16908060040154905085565b6107393361055e565b610778576040517f08c379a000000000000000000000000000000000000000000000000000000000815260040161076f90611673565b60405180910390fd5b60006002828154811061078e5761078d611506565b5b906000526020600020906005020190508060030160009054906101000a900460ff16156107f0576040517f08c379a00000000000000000000000000000000000000000000000000000000081526004016107e7906116df565b60405180910390fd5b6003600083815260200190815260200160002060003373ffffffffffffffffffffffffffffffffffffffff1673ffffffffffffffffffffffffffffffffffffffff16815260200190815260200160002060009054906101000a900460ff161561088e576040517f08c379a00000000000000000000000000000000000000000000000000000000081526004016108859061174b565b60405180910390fd5b60018160040160008282546108a3919061176b565b9250508190555060016003600084815260200190815260200160002060003373ffffffffffffffffffffffffffffffffffffffff1673ffffffffffffffffffffffffffffffffffffffff16815260200190815260200160002060006101000a81548160ff021916908315150217905550813373ffffffffffffffffffffffffffffffffffffffff167f5cbe105e36805f7820e291f799d5794ff948af2a5f664e580382defb6339004160405160405180910390a35050565b60006109663361055e565b6109a5576040517f08c379a000000000000000000000000000000000000000000000000000000000815260040161099c90611673565b60405180910390fd5b600280549050905060026040518060a001604052808673ffffffffffffffffffffffffffffffffffffffff1681526020018581526020018481526020016000151581526020016000815250908060018154018082558091505060019003906000526020600020906005020160009091909190915060008201518160000160006101000a81548173ffffffffffffffffffffffffffffffffffffffff021916908373ffffffffffffffffffffffffffffffffffffffff160217905550602082015181600101556040820151816002019081610a7f919061194b565b5060608201518160030160006101000a81548160ff0219169083151502179055506080820151816004015550508373ffffffffffffffffffffffffffffffffffffffff16817ec2937519b07b47ea25f52e915dd99023f9b3e1aaeef041ddecbac3e9400bbe8585604051610af4929190611a1d565b60405180910390a39392505050565b3073ffffffffffffffffffffffffffffffffffffffff163373ffffffffffffffffffffffffffffffffffffffff1614610b71576040517f08c379a0000000000000000000000000000000000000000000000000000000008152600401610b689061147a565b60405180910390fd5b60008111610bb4576040517f08c379a0000000000000000000000000000000000000000000000000000000008152600401610bab90611a99565b60405180910390fd5b600080549050811115610bfc576040517f08c379a0000000000000000000000000000000000000000000000000000000008152600401610bf390611b05565b60405180910390fd5b8060018190555050565b3073ffffffffffffffffffffffffffffffffffffffff163373ffffffffffffffffffffffffffffffffffffffff1614610c74576040517f08c379a0000000000000000000000000000000000000000000000000000000008152600401610c6b9061147a565b60405180910390fd5b600073ffffffffffffffffffffffffffffffffffffffff168173ffffffffffffffffffffffffffffffffffffffff1603610ce3576040517f08c379a0000000000000000000000000000000000000000000000000000000008152600401610cda90611b71565b60405180910390fd5b610cec8161055e565b15610d2c576040517f08c379a0000000000000000000000000000000000000000000000000000000008152600401610d2390611bdd565b60405180910390fd5b6000819080600181540180825580915050600190039060005260206000200160009091909190916101000a81548173ffffffffffffffffffffffffffffffffffffffff021916908373ffffffffffffffffffffffffffffffffffffffff16021790555050565b610d9b3361055e565b610dda576040517f08c379a0000000000000000000000000000000000000000000000000000000008152600401610dd190611673565b60405180910390fd5b600060028281548110610df057610def611506565b5b906000526020600020906005020190508060030160009054906101000a900460ff1615610e52576040517f08c379a0000000000000000000000000000000000000000000000000000000008152600401610e4990611c49565b60405180910390fd5b60015481600401541015610e9b576040517f08c379a0000000000000000000000000000000000000000000000000000000008152600401610e9290611cb5565b60405180910390fd5b60018160030160006101000a81548160ff02191690831515021790555060008160000160009054906101000a900473ffffffffffffffffffffffffffffffffffffffff1673ffffffffffffffffffffffffffffffffffffffff16826001015483600201604051610f0b9190611d63565b60006040518083038185875af1925050503d8060008114610f48576040519150601f19603f3d011682016040523d82523d6000602084013e610f4d565b606091505b5050905080610f91576040517f08c379a0000000000000000000000000000000000000000000000000000000008152600401610f8890611dc6565b60405180910390fd5b827fae30dc3f11bb6b178aafe5e7fc568fb6d87200068a944a8015c0db1b4533dbb860405160405180910390a2505050565b6000604051905090565b600080fd5b600080fd5b600073ffffffffffffffffffffffffffffffffffffffff82169050919050565b600061100282610fd7565b9050919050565b61101281610ff7565b811461101d57600080fd5b50565b60008135905061102f81611009565b92915050565b60006020828403121561104b5761104a610fcd565b5b600061105984828501611020565b91505092915050565b6000819050919050565b61107581611062565b811461108057600080fd5b50565b6000813590506110928161106c565b92915050565b6000602082840312156110ae576110ad610fcd565b5b60006110bc84828501611083565b91505092915050565b6110ce81610ff7565b82525050565b60006020820190506110e960008301846110c5565b92915050565b6110f881611062565b82525050565b600060208201905061111360008301846110ef565b92915050565b60008115159050919050565b61112e81611119565b82525050565b60006020820190506111496000830184611125565b92915050565b6000806040838503121561116657611165610fcd565b5b600061117485828601611083565b925050602061118585828601611020565b9150509250929050565b600081519050919050565b600082825260208201905092915050565b60005b838110156111c95780820151818401526020810190506111ae565b60008484015250505050565b6000601f19601f8301169050919050565b60006111f18261118f565b6111fb818561119a565b935061120b8185602086016111ab565b611214816111d5565b840191505092915050565b600060a08201905061123460008301886110c5565b61124160208301876110ef565b818103604083015261125381866111e6565b90506112626060830185611125565b61126f60808301846110ef565b9695505050505050565b600080fd5b600080fd5b7f4e487b7100000000000000000000000000000000000000000000000000000000600052604160045260246000fd5b6112bb826111d5565b810181811067ffffffffffffffff821117156112da576112d9611283565b5b80604052505050565b60006112ed610fc3565b90506112f982826112b2565b919050565b600067ffffffffffffffff82111561131957611318611283565b5b611322826111d5565b9050602081019050919050565b82818337600083830152505050565b600061135161134c846112fe565b6112e3565b90508281526020810184848401111561136d5761136c61127e565b5b61137884828561132f565b509392505050565b600082601f83011261139557611394611279565b5b81356113a584826020860161133e565b91505092915050565b6000806000606084860312156113c7576113c6610fcd565b5b60006113d586828701611020565b93505060206113e686828701611083565b925050604084013567ffffffffffffffff81111561140757611406610fd2565b5b61141386828701611380565b9150509250925092565b600082825260208201905092915050565b7f4f6e6c79206d756c74695369672063616e2063616c6c00000000000000000000600082015250565b600061146460168361141d565b915061146f8261142e565b602082019050919050565b6000602082019050818103600083015261149381611457565b9050919050565b7f4e6f742063757272656e746c792061207369676e657200000000000000000000600082015250565b60006114d060168361141d565b91506114db8261149a565b602082019050919050565b600060208201905081810360008301526114ff816114c3565b9050919050565b7f4e487b7100000000000000000000000000000000000000000000000000000000600052603260045260246000fd5b7f4e487b7100000000000000000000000000000000000000000000000000000000600052601160045260246000fd5b600061156f82611062565b915061157a83611062565b925082820390508181111561159257611591611535565b5b92915050565b7f4e487b7100000000000000000000000000000000000000000000000000000000600052603160045260246000fd5b7f4e487b7100000000000000000000000000000000000000000000000000000000600052602260045260246000fd5b6000600282049050600182168061160e57607f821691505b602082108103611621576116206115c7565b5b50919050565b7f4e6f742061207369676e65720000000000000000000000000000000000000000600082015250565b600061165d600c8361141d565b915061166882611627565b602082019050919050565b6000602082019050818103600083015261168c81611650565b9050919050565b7f547820616c726561647920657865637574656400000000000000000000000000600082015250565b60006116c960138361141d565b91506116d482611693565b602082019050919050565b600060208201905081810360008301526116f8816116bc565b9050919050565b7f416c726561647920636f6e6669726d6564000000000000000000000000000000600082015250565b600061173560118361141d565b9150611740826116ff565b602082019050919050565b6000602082019050818103600083015261176481611728565b9050919050565b600061177682611062565b915061178183611062565b925082820190508082111561179957611798611535565b5b92915050565b60008190508160005260206000209050919050565b60006020601f8301049050919050565b600082821b905092915050565b6000600883026118017fffffffffffffffffffffffffffffffffffffffffffffffffffffffffffffffff826117c4565b61180b86836117c4565b95508019841693508086168417925050509392505050565b6000819050919050565b600061184861184361183e84611062565b611823565b611062565b9050919050565b6000819050919050565b6118628361182d565b61187661186e8261184f565b8484546117d1565b825550505050565b600090565b61188b61187e565b611896818484611859565b505050565b5b818110156118ba576118af600082611883565b60018101905061189c565b5050565b601f8211156118ff576118d08161179f565b6118d9846117b4565b810160208510156118e8578190505b6118fc6118f4856117b4565b83018261189b565b50505b505050565b600082821c905092915050565b600061192260001984600802611904565b1980831691505092915050565b600061193b8383611911565b9150826002028217905092915050565b6119548261118f565b67ffffffffffffffff81111561196d5761196c611283565b5b61197782546115f6565b6119828282856118be565b600060209050601f8311600181146119b557600084156119a3578287015190505b6119ad858261192f565b865550611a15565b601f1984166119c38661179f565b60005b828110156119eb578489015182556001820191506020850194506020810190506119c6565b86831015611a085784890151611a04601f891682611911565b8355505b6001600288020188555050505b505050505050565b6000604082019050611a3260008301856110ef565b8181036020830152611a4481846111e6565b90509392505050565b7f496e76616c6964206e65775468726573686f6c64000000000000000000000000600082015250565b6000611a8360148361141d565b9150611a8e82611a4d565b602082019050919050565b60006020820190508181036000830152611ab281611a76565b9050919050565b7f5468726573686f6c643e7369676e657273436f756e7400000000000000000000600082015250565b6000611aef60168361141d565b9150611afa82611ab9565b602082019050919050565b60006020820190508181036000830152611b1e81611ae2565b9050919050565b7f5a65726f2061646472657373206e6f7420616c6c6f7765640000000000000000600082015250565b6000611b5b60188361141d565b9150611b6682611b25565b602082019050919050565b60006020820190508181036000830152611b8a81611b4e565b9050919050565b7f416c72656164792061207369676e657200000000000000000000000000000000600082015250565b6000611bc760108361141d565b9150611bd282611b91565b602082019050919050565b60006020820190508181036000830152611bf681611bba565b9050919050565b7f416c726561647920657865637574656400000000000000000000000000000000600082015250565b6000611c3360108361141d565b9150611c3e82611bfd565b602082019050919050565b60006020820190508181036000830152611c6281611c26565b9050919050565b7f4e6f7420656e6f75676820636f6e6669726d6174696f6e730000000000000000600082015250565b6000611c9f60188361141d565b9150611caa82611c69565b602082019050919050565b60006020820190508181036000830152611cce81611c92565b9050919050565b600081905092915050565b60008154611ced816115f6565b611cf78186611cd5565b94506001821660008114611d125760018114611d2757611d5a565b60ff1983168652811515820286019350611d5a565b611d308561179f565b60005b83811015611d5257815481890152600182019150602081019050611d33565b838801955050505b50505092915050565b6000611d6f8284611ce0565b915081905092915050565b7f5478206661696c65640000000000000000000000000000000000000000000000600082015250565b6000611db060098361141d565b9150611dbb82611d7a565b602082019050919050565b60006020820190508181036000830152611ddf81611da3565b905091905056fea2646970667358221220928ff75410ff3afd2cca9492ee3cc92012eed17be8447264744ea0e82381395c64736f6c634300081c0033",
  "linkReferences": {},
  "deployedLinkReferences": {}
}